{
  "contractName": "Dogs",
  "abi": [
    {
      "inputs": [],
      "stateMutability": "nonpayable",
      "type": "constructor"
    },
    {
      "inputs": [],
      "name": "_initialized",
      "outputs": [
        {
          "internalType": "bool",
          "name": "",
          "type": "bool"
        }
      ],
      "stateMutability": "view",
      "type": "function",
      "constant": true
    },
    {
      "inputs": [],
      "name": "owner",
      "outputs": [
        {
          "internalType": "address",
          "name": "",
          "type": "address"
        }
      ],
      "stateMutability": "view",
      "type": "function",
      "constant": true
    },
    {
      "inputs": [],
      "name": "getNumberOfDogs",
      "outputs": [
        {
          "internalType": "uint256",
          "name": "",
          "type": "uint256"
        }
      ],
      "stateMutability": "view",
      "type": "function",
      "constant": true
    },
    {
      "inputs": [
        {
          "internalType": "uint256",
          "name": "toSet",
          "type": "uint256"
        }
      ],
      "name": "setNumberOfDogs",
      "outputs": [],
      "stateMutability": "nonpayable",
      "type": "function"
    }
  ],
  "bytecode": "0x608060405234801561001057600080fd5b5033600560006101000a81548173ffffffffffffffffffffffffffffffffffffffff021916908373ffffffffffffffffffffffffffffffffffffffff16021790555061030d806100616000396000f3fe608060405234801561001057600080fd5b506004361061004c5760003560e01c806314861b22146100515780631680a5ed1461006d5780633072cf601461008b5780638da5cb5b146100a9575b600080fd5b61006b60048036038101906100669190610182565b6100c7565b005b6100756100eb565b60405161008291906101be565b60405180910390f35b61009361010e565b6040516100a091906101f4565b60405180910390f35b6100b1610121565b6040516100be9190610250565b60405180910390f35b8060006040516100d6906102c2565b90815260200160405180910390208190555050565b6000806040516100fa906102c2565b908152602001604051809103902054905090565b600560149054906101000a900460ff1681565b600560009054906101000a900473ffffffffffffffffffffffffffffffffffffffff1681565b600080fd5b6000819050919050565b61015f8161014c565b811461016a57600080fd5b50565b60008135905061017c81610156565b92915050565b60006020828403121561019857610197610147565b5b60006101a68482850161016d565b91505092915050565b6101b88161014c565b82525050565b60006020820190506101d360008301846101af565b92915050565b60008115159050919050565b6101ee816101d9565b82525050565b600060208201905061020960008301846101e5565b92915050565b600073ffffffffffffffffffffffffffffffffffffffff82169050919050565b600061023a8261020f565b9050919050565b61024a8161022f565b82525050565b60006020820190506102656000830184610241565b92915050565b600081905092915050565b7f446f677300000000000000000000000000000000000000000000000000000000600082015250565b60006102ac60048361026b565b91506102b782610276565b600482019050919050565b60006102cd8261029f565b915081905091905056fea26469706673582212205a75563021b2678a8c6a0aed97e4015ffad691db03a785a5e672fc59cee6e83e64736f6c63430008090033",
  "immutableReferences": {},
  "source": "pragma solidity 0.8.9;\n\nimport \"./Storage.sol\";\n\ncontract Dogs is Storage {\n\n    modifier onlyOwner() {\n        require(msg.sender == owner);\n        _;\n    }\n\n    constructor() public {\n        owner = msg.sender;\n    }\n\n    function getNumberOfDogs() public view returns(uint256) {\n        return _uintStorage[\"Dogs\"];\n    }\n    function setNumberOfDogs(uint256 toSet) public {\n        _uintStorage[\"Dogs\"] = toSet;\n    }\n\n}",
  "sourcePath": "/Users/vineet/ethereum-course-advanced/proxyContract/contracts/Dogs.sol",
  "compiler": {
    "name": "solc",
    "version": "0.8.9+commit.e5eed63a.Emscripten.clang"
  },
  "schemaVersion": "3.3.4",
  "updatedAt": "2021-09-30T18:17:47.132Z",
  "networkType": "ethereum",
  "devdoc": {
    "kind": "dev",
    "methods": {},
    "version": 1
  },
  "userdoc": {
    "kind": "user",
    "methods": {},
    "version": 1
  }
}